{
  "contractName": "Adoption",
  "abi": [
    {
      "constant": true,
      "inputs": [
        {
          "name": "",
          "type": "uint256"
        }
      ],
      "name": "adopters",
      "outputs": [
        {
          "name": "",
          "type": "address"
        }
      ],
      "payable": false,
      "stateMutability": "view",
      "type": "function"
    },
    {
      "constant": false,
      "inputs": [
        {
          "name": "petId",
          "type": "uint256"
        }
      ],
      "name": "adopt",
      "outputs": [
        {
          "name": "",
          "type": "uint256"
        }
      ],
      "payable": false,
      "stateMutability": "nonpayable",
      "type": "function"
    },
    {
      "constant": true,
      "inputs": [],
      "name": "getAdopters",
      "outputs": [
        {
          "name": "",
          "type": "address[16]"
        }
      ],
      "payable": false,
      "stateMutability": "view",
      "type": "function"
    }
  ],
  "bytecode": "0x608060405234801561001057600080fd5b506102d8806100206000396000f300608060405260043610610057576000357c0100000000000000000000000000000000000000000000000000000000900463ffffffff1680633de4eb171461005c57806343ae80d3146100af5780638588b2c51461011c575b600080fd5b34801561006857600080fd5b5061007161015d565b6040518082601060200280838360005b8381101561009c578082015181840152602081019050610081565b5050505090500191505060405180910390f35b3480156100bb57600080fd5b506100da600480360381019080803590602001909291905050506101de565b604051808273ffffffffffffffffffffffffffffffffffffffff1673ffffffffffffffffffffffffffffffffffffffff16815260200191505060405180910390f35b34801561012857600080fd5b5061014760048036038101908080359060200190929190505050610213565b6040518082815260200191505060405180910390f35b610165610288565b60006010806020026040519081016040528092919082601080156101d4576020028201915b8160009054906101000a900473ffffffffffffffffffffffffffffffffffffffff1673ffffffffffffffffffffffffffffffffffffffff168152602001906001019080831161018a575b5050505050905090565b6000816010811015156101ed57fe5b016000915054906101000a900473ffffffffffffffffffffffffffffffffffffffff1681565b60008082101580156102265750600f8211155b151561023157600080fd5b3360008360108110151561024157fe5b0160006101000a81548173ffffffffffffffffffffffffffffffffffffffff021916908373ffffffffffffffffffffffffffffffffffffffff160217905550819050919050565b610200604051908101604052806010906020820280388339808201915050905050905600a165627a7a723058207af59aa4c5642e54524846e586ef85dbcd497c96714aead549758c4cfde64d720029",
  "source": "pragma solidity ^0.4.17; // The minimum version of Solidity required \n\ncontract Adoption {\n\t\n\taddress[16] public adopters;\n\n\tfunction adopt(uint petId) public returns (uint) {\n\t\trequire(petId >= 0 && petId <= 15);\n\t\tadopters[petId] = msg.sender;\n\t\treturn petId;\n\t}\n\n\tfunction getAdopters() public view returns(address[16]) {\n\t\treturn adopters;\n\t}\n\n}\n\n// Solidity is a compiled language, meaning we need to compile our Solidity to bytecode for the Ethereum Virtual Machine (EVM) to execute. ",
  "sourcePath": "/Users/Darthin/Work/blockchain/pet-shop-dapp/contracts/Adoption.sol",
  "compiler": {
    "name": "solc",
    "version": "0.4.24+commit.e67f0147.Emscripten.clang"
  },
  "schemaVersion": "2.0.1",
  "updatedAt": "2018-07-19T03:01:52.238Z"
}